{
  "_format": "hh-sol-artifact-1",
  "contractName": "SatyaVault",
  "sourceName": "contracts/SatyaVault.sol",
  "abi": [
    {
      "inputs": [],
      "stateMutability": "nonpayable",
      "type": "constructor"
    },
    {
      "inputs": [],
      "name": "AgencyMismatch",
      "type": "error"
    },
    {
      "inputs": [],
      "name": "EmptyValue",
      "type": "error"
    },
    {
      "inputs": [],
      "name": "EvidenceNotFound",
      "type": "error"
    },
    {
      "inputs": [],
      "name": "InactiveActor",
      "type": "error"
    },
    {
      "inputs": [],
      "name": "InvalidCustodyPath",
      "type": "error"
    },
    {
      "inputs": [],
      "name": "InvalidRole",
      "type": "error"
    },
    {
      "inputs": [],
      "name": "NotAdmin",
      "type": "error"
    },
    {
      "inputs": [],
      "name": "NotCurrentCustodian",
      "type": "error"
    },
    {
      "inputs": [],
      "name": "SelfTransferNotAllowed",
      "type": "error"
    },
    {
      "inputs": [],
      "name": "UnauthorizedRole",
      "type": "error"
    },
    {
      "anonymous": false,
      "inputs": [
        {
          "indexed": true,
          "internalType": "address",
          "name": "actor",
          "type": "address"
        },
        {
          "indexed": true,
          "internalType": "enum SatyaVault.Role",
          "name": "role",
          "type": "uint8"
        },
        {
          "indexed": false,
          "internalType": "string",
          "name": "agency",
          "type": "string"
        },
        {
          "indexed": false,
          "internalType": "bool",
          "name": "active",
          "type": "bool"
        },
        {
          "indexed": false,
          "internalType": "address",
          "name": "updatedBy",
          "type": "address"
        },
        {
          "indexed": false,
          "internalType": "uint256",
          "name": "timestamp",
          "type": "uint256"
        }
      ],
      "name": "ActorProfileUpdated",
      "type": "event"
    },
    {
      "anonymous": false,
      "inputs": [
        {
          "indexed": true,
          "internalType": "address",
          "name": "oldAdmin",
          "type": "address"
        },
        {
          "indexed": true,
          "internalType": "address",
          "name": "newAdmin",
          "type": "address"
        },
        {
          "indexed": false,
          "internalType": "uint256",
          "name": "timestamp",
          "type": "uint256"
        }
      ],
      "name": "AdminUpdated",
      "type": "event"
    },
    {
      "anonymous": false,
      "inputs": [
        {
          "indexed": true,
          "internalType": "uint256",
          "name": "evidenceId",
          "type": "uint256"
        },
        {
          "indexed": true,
          "internalType": "address",
          "name": "fromActor",
          "type": "address"
        },
        {
          "indexed": true,
          "internalType": "address",
          "name": "toActor",
          "type": "address"
        },
        {
          "indexed": false,
          "internalType": "string",
          "name": "fromOrg",
          "type": "string"
        },
        {
          "indexed": false,
          "internalType": "string",
          "name": "toOrg",
          "type": "string"
        },
        {
          "indexed": false,
          "internalType": "string",
          "name": "action",
          "type": "string"
        },
        {
          "indexed": false,
          "internalType": "string",
          "name": "notes",
          "type": "string"
        },
        {
          "indexed": false,
          "internalType": "uint256",
          "name": "timestamp",
          "type": "uint256"
        }
      ],
      "name": "CustodyTransferred",
      "type": "event"
    },
    {
      "anonymous": false,
      "inputs": [
        {
          "indexed": true,
          "internalType": "uint256",
          "name": "evidenceId",
          "type": "uint256"
        },
        {
          "indexed": true,
          "internalType": "address",
          "name": "accessor",
          "type": "address"
        },
        {
          "indexed": false,
          "internalType": "uint256",
          "name": "timestamp",
          "type": "uint256"
        }
      ],
      "name": "EncryptionKeyAccessed",
      "type": "event"
    },
    {
      "anonymous": false,
      "inputs": [
        {
          "indexed": true,
          "internalType": "uint256",
          "name": "evidenceId",
          "type": "uint256"
        },
        {
          "indexed": true,
          "internalType": "address",
          "name": "authorizedAddress",
          "type": "address"
        },
        {
          "indexed": false,
          "internalType": "uint256",
          "name": "timestamp",
          "type": "uint256"
        }
      ],
      "name": "EncryptionKeyStored",
      "type": "event"
    },
    {
      "anonymous": false,
      "inputs": [
        {
          "indexed": true,
          "internalType": "uint256",
          "name": "evidenceId",
          "type": "uint256"
        },
        {
          "indexed": true,
          "internalType": "bytes32",
          "name": "fileHash",
          "type": "bytes32"
        },
        {
          "indexed": true,
          "internalType": "address",
          "name": "createdBy",
          "type": "address"
        },
        {
          "indexed": false,
          "internalType": "string",
          "name": "ipfsUri",
          "type": "string"
        },
        {
          "indexed": false,
          "internalType": "string",
          "name": "caseId",
          "type": "string"
        },
        {
          "indexed": false,
          "internalType": "string",
          "name": "investigatorId",
          "type": "string"
        },
        {
          "indexed": false,
          "internalType": "uint256",
          "name": "timestamp",
          "type": "uint256"
        }
      ],
      "name": "EvidenceRegistered",
      "type": "event"
    },
    {
      "anonymous": false,
      "inputs": [
        {
          "indexed": true,
          "internalType": "uint256",
          "name": "evidenceId",
          "type": "uint256"
        },
        {
          "indexed": true,
          "internalType": "bytes32",
          "name": "actionRef",
          "type": "bytes32"
        },
        {
          "indexed": true,
          "internalType": "address",
          "name": "actor",
          "type": "address"
        },
        {
          "indexed": false,
          "internalType": "string",
          "name": "agency",
          "type": "string"
        },
        {
          "indexed": false,
          "internalType": "string",
          "name": "actionType",
          "type": "string"
        },
        {
          "indexed": false,
          "internalType": "string",
          "name": "actionNotes",
          "type": "string"
        },
        {
          "indexed": false,
          "internalType": "string",
          "name": "artifactUri",
          "type": "string"
        },
        {
          "indexed": false,
          "internalType": "uint256",
          "name": "timestamp",
          "type": "uint256"
        }
      ],
      "name": "InvestigationActionLogged",
      "type": "event"
    },
    {
      "inputs": [
        {
          "internalType": "uint256",
          "name": "",
          "type": "uint256"
        }
      ],
      "name": "currentCustodian",
      "outputs": [
        {
          "internalType": "address",
          "name": "",
          "type": "address"
        }
      ],
      "stateMutability": "view",
      "type": "function"
    },
    {
      "inputs": [],
      "name": "evidenceCount",
      "outputs": [
        {
          "internalType": "uint256",
          "name": "",
          "type": "uint256"
        }
      ],
      "stateMutability": "view",
      "type": "function"
    },
    {
      "inputs": [
        {
          "internalType": "address",
          "name": "actor",
          "type": "address"
        }
      ],
      "name": "getActorProfile",
      "outputs": [
        {
          "components": [
            {
              "internalType": "enum SatyaVault.Role",
              "name": "role",
              "type": "uint8"
            },
            {
              "internalType": "string",
              "name": "agency",
              "type": "string"
            },
            {
              "internalType": "bool",
              "name": "active",
              "type": "bool"
            },
            {
              "internalType": "uint256",
              "name": "updatedAt",
              "type": "uint256"
            },
            {
              "internalType": "address",
              "name": "updatedBy",
              "type": "address"
            }
          ],
          "internalType": "struct SatyaVault.ActorProfile",
          "name": "",
          "type": "tuple"
        }
      ],
      "stateMutability": "view",
      "type": "function"
    },
    {
      "inputs": [
        {
          "internalType": "uint256",
          "name": "evidenceId",
          "type": "uint256"
        }
      ],
      "name": "getAuthorizedDecryptors",
      "outputs": [
        {
          "internalType": "address[]",
          "name": "",
          "type": "address[]"
        }
      ],
      "stateMutability": "view",
      "type": "function"
    },
    {
      "inputs": [
        {
          "internalType": "uint256",
          "name": "evidenceId",
          "type": "uint256"
        }
      ],
      "name": "getCustodyHistory",
      "outputs": [
        {
          "components": [
            {
              "internalType": "address",
              "name": "fromActor",
              "type": "address"
            },
            {
              "internalType": "address",
              "name": "toActor",
              "type": "address"
            },
            {
              "internalType": "string",
              "name": "fromOrg",
              "type": "string"
            },
            {
              "internalType": "string",
              "name": "toOrg",
              "type": "string"
            },
            {
              "internalType": "string",
              "name": "action",
              "type": "string"
            },
            {
              "internalType": "string",
              "name": "notes",
              "type": "string"
            },
            {
              "internalType": "uint256",
              "name": "timestamp",
              "type": "uint256"
            }
          ],
          "internalType": "struct SatyaVault.CustodyEvent[]",
          "name": "",
          "type": "tuple[]"
        }
      ],
      "stateMutability": "view",
      "type": "function"
    },
    {
      "inputs": [
        {
          "internalType": "uint256",
          "name": "evidenceId",
          "type": "uint256"
        },
        {
          "internalType": "address",
          "name": "accessor",
          "type": "address"
        }
      ],
      "name": "getEncryptionKey",
      "outputs": [
        {
          "internalType": "string",
          "name": "",
          "type": "string"
        }
      ],
      "stateMutability": "view",
      "type": "function"
    },
    {
      "inputs": [
        {
          "internalType": "uint256",
          "name": "evidenceId",
          "type": "uint256"
        }
      ],
      "name": "getEvidence",
      "outputs": [
        {
          "components": [
            {
              "internalType": "uint256",
              "name": "evidenceId",
              "type": "uint256"
            },
            {
              "internalType": "bytes32",
              "name": "fileHash",
              "type": "bytes32"
            },
            {
              "internalType": "string",
              "name": "ipfsUri",
              "type": "string"
            },
            {
              "internalType": "string",
              "name": "caseId",
              "type": "string"
            },
            {
              "internalType": "string",
              "name": "investigatorId",
              "type": "string"
            },
            {
              "internalType": "uint256",
              "name": "createdAt",
              "type": "uint256"
            },
            {
              "internalType": "address",
              "name": "createdBy",
              "type": "address"
            },
            {
              "internalType": "bool",
              "name": "exists",
              "type": "bool"
            }
          ],
          "internalType": "struct SatyaVault.Evidence",
          "name": "",
          "type": "tuple"
        }
      ],
      "stateMutability": "view",
      "type": "function"
    },
    {
      "inputs": [
        {
          "internalType": "uint256",
          "name": "evidenceId",
          "type": "uint256"
        }
      ],
      "name": "getInvestigationActions",
      "outputs": [
        {
          "components": [
            {
              "internalType": "address",
              "name": "actor",
              "type": "address"
            },
            {
              "internalType": "string",
              "name": "agency",
              "type": "string"
            },
            {
              "internalType": "string",
              "name": "actionType",
              "type": "string"
            },
            {
              "internalType": "string",
              "name": "actionNotes",
              "type": "string"
            },
            {
              "internalType": "string",
              "name": "artifactUri",
              "type": "string"
            },
            {
              "internalType": "bytes32",
              "name": "actionRef",
              "type": "bytes32"
            },
            {
              "internalType": "uint256",
              "name": "timestamp",
              "type": "uint256"
            }
          ],
          "internalType": "struct SatyaVault.InvestigationAction[]",
          "name": "",
          "type": "tuple[]"
        }
      ],
      "stateMutability": "view",
      "type": "function"
    },
    {
      "inputs": [
        {
          "internalType": "uint256",
          "name": "evidenceId",
          "type": "uint256"
        },
        {
          "internalType": "address",
          "name": "accessor",
          "type": "address"
        }
      ],
      "name": "hasEncryptionKeyAccess",
      "outputs": [
        {
          "internalType": "bool",
          "name": "",
          "type": "bool"
        }
      ],
      "stateMutability": "view",
      "type": "function"
    },
    {
      "inputs": [
        {
          "internalType": "uint256",
          "name": "",
          "type": "uint256"
        }
      ],
      "name": "isEncrypted",
      "outputs": [
        {
          "internalType": "bool",
          "name": "",
          "type": "bool"
        }
      ],
      "stateMutability": "view",
      "type": "function"
    },
    {
      "inputs": [
        {
          "internalType": "uint256",
          "name": "evidenceId",
          "type": "uint256"
        },
        {
          "internalType": "string",
          "name": "actionType",
          "type": "string"
        },
        {
          "internalType": "string",
          "name": "actionNotes",
          "type": "string"
        },
        {
          "internalType": "string",
          "name": "artifactUri",
          "type": "string"
        }
      ],
      "name": "recordInvestigativeAction",
      "outputs": [
        {
          "internalType": "bytes32",
          "name": "actionRef",
          "type": "bytes32"
        }
      ],
      "stateMutability": "nonpayable",
      "type": "function"
    },
    {
      "inputs": [
        {
          "internalType": "bytes32",
          "name": "fileHash",
          "type": "bytes32"
        },
        {
          "internalType": "string",
          "name": "ipfsUri",
          "type": "string"
        },
        {
          "internalType": "string",
          "name": "caseId",
          "type": "string"
        },
        {
          "internalType": "string",
          "name": "investigatorId",
          "type": "string"
        },
        {
          "internalType": "string",
          "name": "initialOrg",
          "type": "string"
        }
      ],
      "name": "registerEvidence",
      "outputs": [
        {
          "internalType": "uint256",
          "name": "newEvidenceId",
          "type": "uint256"
        }
      ],
      "stateMutability": "nonpayable",
      "type": "function"
    },
    {
      "inputs": [
        {
          "internalType": "address",
          "name": "actor",
          "type": "address"
        },
        {
          "internalType": "enum SatyaVault.Role",
          "name": "role",
          "type": "uint8"
        },
        {
          "internalType": "string",
          "name": "agency",
          "type": "string"
        },
        {
          "internalType": "bool",
          "name": "active",
          "type": "bool"
        }
      ],
      "name": "setActorProfile",
      "outputs": [],
      "stateMutability": "nonpayable",
      "type": "function"
    },
    {
      "inputs": [
        {
          "internalType": "address",
          "name": "newAdmin",
          "type": "address"
        }
      ],
      "name": "setSystemAdmin",
      "outputs": [],
      "stateMutability": "nonpayable",
      "type": "function"
    },
    {
      "inputs": [
        {
          "internalType": "uint256",
          "name": "evidenceId",
          "type": "uint256"
        },
        {
          "internalType": "address",
          "name": "authorizedAddress",
          "type": "address"
        },
        {
          "internalType": "string",
          "name": "encryptedKey",
          "type": "string"
        }
      ],
      "name": "storeEncryptionKey",
      "outputs": [],
      "stateMutability": "nonpayable",
      "type": "function"
    },
    {
      "inputs": [],
      "name": "systemAdmin",
      "outputs": [
        {
          "internalType": "address",
          "name": "",
          "type": "address"
        }
      ],
      "stateMutability": "view",
      "type": "function"
    },
    {
      "inputs": [
        {
          "internalType": "uint256",
          "name": "evidenceId",
          "type": "uint256"
        },
        {
          "internalType": "address",
          "name": "toActor",
          "type": "address"
        },
        {
          "internalType": "string",
          "name": "fromOrg",
          "type": "string"
        },
        {
          "internalType": "string",
          "name": "toOrg",
          "type": "string"
        },
        {
          "internalType": "string",
          "name": "action",
          "type": "string"
        },
        {
          "internalType": "string",
          "name": "notes",
          "type": "string"
        }
      ],
      "name": "transferCustody",
      "outputs": [],
      "stateMutability": "nonpayable",
      "type": "function"
    },
    {
      "inputs": [
        {
          "internalType": "uint256",
          "name": "evidenceId",
          "type": "uint256"
        },
        {
          "internalType": "bytes32",
          "name": "localHash",
          "type": "bytes32"
        }
      ],
      "name": "verifyIntegrity",
      "outputs": [
        {
          "internalType": "bool",
          "name": "",
          "type": "bool"
        }
      ],
      "stateMutability": "view",
      "type": "function"
    }
  ],
  "bytecode": "0x60806040523480156200001157600080fd5b50600180546001600160a01b031916331790556040805160a081019091528060058152604080518082018252601881527f4d696e6973747279206f6620486f6d65204166666169727300000000000000006020828101919091528084019190915260018284018190524260608501523360809094018490526000938452600290915291208251815491929091839160ff1990911690836005811115620000bb57620000bb6200019f565b021790555060208201516001820190620000d690826200025c565b50604082015160028201805460ff191691151591909117905560608201516003820155608090910151600490910180546001600160a01b0319166001600160a01b0390921691909117905560056040805160808082526018908201527f4d696e6973747279206f6620486f6d652041666661697273000000000000000060a082015260016020820152339181018290524260608201527fb2f962b86861817a5a011d45ff83cedc046f7b897942aaf66ba866aaee79fc7f9060c00160405180910390a362000328565b634e487b7160e01b600052602160045260246000fd5b634e487b7160e01b600052604160045260246000fd5b600181811c90821680620001e057607f821691505b6020821081036200020157634e487b7160e01b600052602260045260246000fd5b50919050565b601f82111562000257576000816000526020600020601f850160051c81016020861015620002325750805b601f850160051c820191505b8181101562000253578281556001016200023e565b5050505b505050565b81516001600160401b03811115620002785762000278620001b5565b6200029081620002898454620001cb565b8462000207565b602080601f831160018114620002c85760008415620002af5750858301515b600019600386901b1c1916600185901b17855562000253565b600085815260208120601f198616915b82811015620002f957888601518255948401946001909101908401620002d8565b5085821015620003185787850151600019600388901b60f8161c191681555b5050505050600190811b01905550565b6147b480620003386000396000f3fe608060405234801561001057600080fd5b50600436106101165760003560e01c8063b27bce7c116100a2578063ccacfc3c11610071578063ccacfc3c146102a3578063d55202ab146102c3578063d75af31e146102d6578063ea8f7c21146102f6578063fa0c87531461030957600080fd5b8063b27bce7c1461022a578063b593cd1c1461024d578063b972296514610270578063c956f1431461028357600080fd5b80633c7efc21116100e95780633c7efc211461018c57806358b9d20d146101ac57806378e494d3146101cd578063a239e33d1461020e578063a2ed5af01461022157600080fd5b806308e955b61461011b578063102815c1146101305780631f7df728146101595780632f487c6014610179575b600080fd5b61012e610129366004613a2e565b61031c565b005b61014361013e366004613ab2565b610575565b6040516101509190613b24565b60405180910390f35b61016c610167366004613b3e565b610890565b6040516101509190613b57565b61012e610187366004613ba4565b610da7565b61019f61019a366004613c85565b6114d8565b6040516101509190613cb6565b6101bf6101ba366004613d30565b6115f5565b604051908152602001610150565b6101f66101db366004613b3e565b6006602052600090815260409020546001600160a01b031681565b6040516001600160a01b039091168152602001610150565b6001546101f6906001600160a01b031681565b6101bf60005481565b61023d610238366004613ab2565b611b00565b6040519015158152602001610150565b61023d61025b366004613b3e565b60086020526000908152604090205460ff1681565b61023d61027e366004613dd4565b611bd5565b610296610291366004613b3e565b611e24565b6040516101509190613df6565b6102b66102b1366004613b3e565b6120ba565b6040516101509190613ea3565b6101bf6102d1366004613f8b565b6125d5565b6102e96102e4366004613b3e565b612af8565b604051610150919061405b565b61012e610304366004613c85565b61300a565b61012e610317366004614147565b613333565b6001546001600160a01b0316331461034757604051637bfa4b9f60e01b815260040160405180910390fd5b6001600160a01b03851661036e57604051631208b21b60e01b815260040160405180910390fd5b80801561038c5750600084600581111561038a5761038a613ca0565b145b156103aa57604051636caa20b560e11b815260040160405180910390fd5b60008460058111156103be576103be613ca0565b141580156103de575060058460058111156103db576103db613ca0565b14155b80156103e8575081155b1561040657604051631208b21b60e01b815260040160405180910390fd5b6040518060a0016040528085600581111561042357610423613ca0565b815260200184848080601f016020809104026020016040519081016040528093929190818152602001838380828437600092018290525093855250505083151560208084019190915242604080850191909152336060909401939093526001600160a01b0389168252600290522081518154829060ff191660018360058111156104af576104af613ca0565b0217905550602082015160018201906104c89082614242565b50604082015160028201805460ff191691151591909117905560608201516003820155608090910151600490910180546001600160a01b0319166001600160a01b0390921691909117905583600581111561052557610525613ca0565b856001600160a01b03167fb2f962b86861817a5a011d45ff83cedc046f7b897942aaf66ba866aaee79fc7f858585334260405161056695949392919061432b565b60405180910390a35050505050565b60606000600360008581526020019081526020016000206040518061010001604052908160008201548152602001600182015481526020016002820180546105bc906141b7565b80601f01602080910402602001604051908101604052809291908181526020018280546105e8906141b7565b80156106355780601f1061060a57610100808354040283529160200191610635565b820191906000526020600020905b81548152906001019060200180831161061857829003601f168201915b5050505050815260200160038201805461064e906141b7565b80601f016020809104026020016040519081016040528092919081815260200182805461067a906141b7565b80156106c75780601f1061069c576101008083540402835291602001916106c7565b820191906000526020600020905b8154815290600101906020018083116106aa57829003601f168201915b505050505081526020016004820180546106e0906141b7565b80601f016020809104026020016040519081016040528092919081815260200182805461070c906141b7565b80156107595780601f1061072e57610100808354040283529160200191610759565b820191906000526020600020905b81548152906001019060200180831161073c57829003601f168201915b5050509183525050600582015460208201526006909101546001600160a01b0381166040830152600160a01b900460ff16151560609091015260e08101519091506107b757604051639a6c6ff760e01b815260040160405180910390fd5b60008481526007602090815260408083206001600160a01b0387168452909152812080546107e4906141b7565b80601f0160208091040260200160405190810160405280929190818152602001828054610810906141b7565b801561085d5780601f106108325761010080835404028352916020019161085d565b820191906000526020600020905b81548152906001019060200180831161084057829003601f168201915b50505050509050805160000361088657604051630aedfc3560e21b815260040160405180910390fd5b9150505b92915050565b60606000600360008481526020019081526020016000206040518061010001604052908160008201548152602001600182015481526020016002820180546108d7906141b7565b80601f0160208091040260200160405190810160405280929190818152602001828054610903906141b7565b80156109505780601f1061092557610100808354040283529160200191610950565b820191906000526020600020905b81548152906001019060200180831161093357829003601f168201915b50505050508152602001600382018054610969906141b7565b80601f0160208091040260200160405190810160405280929190818152602001828054610995906141b7565b80156109e25780601f106109b7576101008083540402835291602001916109e2565b820191906000526020600020905b8154815290600101906020018083116109c557829003601f168201915b505050505081526020016004820180546109fb906141b7565b80601f0160208091040260200160405190810160405280929190818152602001828054610a27906141b7565b8015610a745780601f10610a4957610100808354040283529160200191610a74565b820191906000526020600020905b815481529060010190602001808311610a5757829003601f168201915b5050509183525050600582015460208201526006909101546001600160a01b0381166040830152600160a01b900460ff16151560609091015260e0810151909150610ad257604051639a6c6ff760e01b815260040160405180910390fd5b60008381526008602052604090205460ff16610afe575050604080516000815260208101909152919050565b604080516064808252610ca0820190925260009160208201610c808036833701905050604080516101408101825260c0808601516001600160a01b0390811683526000898152600660209081528582205483169085015260015490911693830193909352606082018390526080820183905260a08201839052810182905260e081018290526101008101829052610120810182905291925090815b600a811015610cfd5760008282600a8110610bb657610bb6614365565b60200201516001600160a01b031614610cf5576000878152600760205260408120818484600a8110610bea57610bea614365565b60200201516001600160a01b03166001600160a01b031681526020019081526020016000208054610c1a906141b7565b80601f0160208091040260200160405190810160405280929190818152602001828054610c46906141b7565b8015610c935780601f10610c6857610100808354040283529160200191610c93565b820191906000526020600020905b815481529060010190602001808311610c7657829003601f168201915b50505050509050600081511115610cf3578282600a8110610cb657610cb6614365565b6020020151858581518110610ccd57610ccd614365565b6001600160a01b039092166020928302919091019091015283610cef81614391565b9450505b505b600101610b99565b5060008267ffffffffffffffff811115610d1957610d196141a1565b604051908082528060200260200182016040528015610d42578160200160208202803683370190505b50905060005b83811015610d9c57848181518110610d6257610d62614365565b6020026020010151828281518110610d7c57610d7c614365565b6001600160a01b0390921660209283029190910190910152600101610d48565b509695505050505050565b6000600360008c8152602001908152602001600020604051806101000160405290816000820154815260200160018201548152602001600282018054610dec906141b7565b80601f0160208091040260200160405190810160405280929190818152602001828054610e18906141b7565b8015610e655780601f10610e3a57610100808354040283529160200191610e65565b820191906000526020600020905b815481529060010190602001808311610e4857829003601f168201915b50505050508152602001600382018054610e7e906141b7565b80601f0160208091040260200160405190810160405280929190818152602001828054610eaa906141b7565b8015610ef75780601f10610ecc57610100808354040283529160200191610ef7565b820191906000526020600020905b815481529060010190602001808311610eda57829003601f168201915b50505050508152602001600482018054610f10906141b7565b80601f0160208091040260200160405190810160405280929190818152602001828054610f3c906141b7565b8015610f895780601f10610f5e57610100808354040283529160200191610f89565b820191906000526020600020905b815481529060010190602001808311610f6c57829003601f168201915b5050509183525050600582015460208201526006909101546001600160a01b0381166040830152600160a01b900460ff16151560609091015260e0810151909150610fe757604051639a6c6ff760e01b815260040160405180910390fd5b60008b8152600660205260409020546001600160a01b0316331461101e5760405163304664e960e11b815260040160405180910390fd5b6001600160a01b038a1661104557604051631208b21b60e01b815260040160405180910390fd5b6001600160a01b038a16330361106e576040516352a7f8fb60e01b815260040160405180910390fd5b600088900361109057604051631208b21b60e01b815260040160405180910390fd5b60008690036110b257604051631208b21b60e01b815260040160405180910390fd5b60008490036110d457604051631208b21b60e01b815260040160405180910390fd5b60006110df3361369c565b905060006110ec8c61369c565b90506110fb82600001516137fd565b158061110f5750805161110d906137fd565b155b1561112d57604051630aedfc3560e21b815260040160405180910390fd5b60058251600581111561114257611142613ca0565b14158015611191575061118f82602001518c8c8080601f01602080910402602001604051908101604052809392919081815260200183838082843760009201919091525061386e92505050565b155b156111af57604051633562206d60e21b815260040160405180910390fd5b6005815160058111156111c4576111c4613ca0565b14158015611213575061121181602001518a8a8080601f01602080910402602001604051908101604052809392919081815260200183838082843760009201919091525061386e92505050565b155b1561123157604051633562206d60e21b815260040160405180910390fd5b8151815161123f9190613884565b61125c57604051630a0d420f60e01b815260040160405180910390fd5b600460008e81526020019081526020016000206040518060e00160405280336001600160a01b031681526020018e6001600160a01b031681526020018d8d8080601f016020809104026020016040519081016040528093929190818152602001838380828437600092019190915250505090825250604080516020601f8e018190048102820181019092528c815291810191908d908d9081908401838280828437600092019190915250505090825250604080516020601f8c018190048102820181019092528a815291810191908b908b9081908401838280828437600092019190915250505090825250604080516020601f8a018190048102820181019092528881529181019190899089908190840183828082843760009201829052509385525050426020938401525083546001808201865594825290829020835160079092020180546001600160a01b03199081166001600160a01b0393841617825592840151948101805490931694909116939093179055604081015190919060028201906113e99082614242565b50606082015160038201906113fe9082614242565b50608082015160048201906114139082614242565b5060a082015160058201906114289082614242565b5060c0820151816006015550508b600660008f815260200190815260200160002060006101000a8154816001600160a01b0302191690836001600160a01b031602179055508b6001600160a01b0316336001600160a01b03168e7f064d401cf715026f02b25c612c3f6dfa004e147a4817763b39f55c491f3d9c808e8e8e8e8e8e8e8e426040516114c1999897969594939291906143aa565b60405180910390a450505050505050505050505050565b6114e0613993565b6001600160a01b03821660009081526002602052604090819020815160a081019092528054829060ff16600581111561151b5761151b613ca0565b600581111561152c5761152c613ca0565b8152602001600182018054611540906141b7565b80601f016020809104026020016040519081016040528092919081815260200182805461156c906141b7565b80156115b95780601f1061158e576101008083540402835291602001916115b9565b820191906000526020600020905b81548152906001019060200180831161159c57829003601f168201915b5050509183525050600282015460ff1615156020820152600382015460408201526004909101546001600160a01b031660609091015292915050565b600080600360008a815260200190815260200160002060405180610100016040529081600082015481526020016001820154815260200160028201805461163b906141b7565b80601f0160208091040260200160405190810160405280929190818152602001828054611667906141b7565b80156116b45780601f10611689576101008083540402835291602001916116b4565b820191906000526020600020905b81548152906001019060200180831161169757829003601f168201915b505050505081526020016003820180546116cd906141b7565b80601f01602080910402602001604051908101604052809291908181526020018280546116f9906141b7565b80156117465780601f1061171b57610100808354040283529160200191611746565b820191906000526020600020905b81548152906001019060200180831161172957829003601f168201915b5050505050815260200160048201805461175f906141b7565b80601f016020809104026020016040519081016040528092919081815260200182805461178b906141b7565b80156117d85780601f106117ad576101008083540402835291602001916117d8565b820191906000526020600020905b8154815290600101906020018083116117bb57829003601f168201915b5050509183525050600582015460208201526006909101546001600160a01b0381166040830152600160a01b900460ff16151560609091015260e081015190915061183657604051639a6c6ff760e01b815260040160405180910390fd5b600087900361185857604051631208b21b60e01b815260040160405180910390fd5b60006118633361369c565b905061187281600001516137fd565b61188f57604051630aedfc3560e21b815260040160405180910390fd5b60008a8152600660205260409020546001600160a01b031633148015906118c957506005815160058111156118c6576118c6613ca0565b14155b156118e75760405163304664e960e11b815260040160405180910390fd5b89338a8a8a8a8a8a4260405160200161190899989796959493929190614412565b60408051601f19818403018152828252805160209182012060008e81526005835283902060e08501845233855285830151858401528351601f8e0184900484028101840185528d815291975093928301918d908d9081908401838280828437600092019190915250505090825250604080516020601f8c018190048102820181019092528a815291810191908b908b9081908401838280828437600092019190915250505090825250604080516020601f8a0181900481028201810190925288815291810191908990899081908401838280828437600092018290525093855250505060208083018890524260409093019290925283546001808201865594825290829020835160079092020180546001600160a01b0319166001600160a01b03909216919091178155908201519192909190820190611a489082614242565b5060408201516002820190611a5d9082614242565b5060608201516003820190611a729082614242565b5060808201516004820190611a879082614242565b5060a0820151816005015560c082015181600601555050336001600160a01b0316838b7f1252334df803000be4698192f75785077e733b6c3f572ece9d6a2001972cf41684602001518d8d8d8d8d8d42604051611aeb989796959493929190614473565b60405180910390a45050979650505050505050565b60008281526008602052604081205460ff16611b1e5750600061088a565b60008381526007602090815260408083206001600160a01b038616845290915281208054611b4b906141b7565b80601f0160208091040260200160405190810160405280929190818152602001828054611b77906141b7565b8015611bc45780601f10611b9957610100808354040283529160200191611bc4565b820191906000526020600020905b815481529060010190602001808311611ba757829003601f168201915b505092511515979650505050505050565b60008060036000858152602001908152602001600020604051806101000160405290816000820154815260200160018201548152602001600282018054611c1b906141b7565b80601f0160208091040260200160405190810160405280929190818152602001828054611c47906141b7565b8015611c945780601f10611c6957610100808354040283529160200191611c94565b820191906000526020600020905b815481529060010190602001808311611c7757829003601f168201915b50505050508152602001600382018054611cad906141b7565b80601f0160208091040260200160405190810160405280929190818152602001828054611cd9906141b7565b8015611d265780601f10611cfb57610100808354040283529160200191611d26565b820191906000526020600020905b815481529060010190602001808311611d0957829003601f168201915b50505050508152602001600482018054611d3f906141b7565b80601f0160208091040260200160405190810160405280929190818152602001828054611d6b906141b7565b8015611db85780601f10611d8d57610100808354040283529160200191611db8565b820191906000526020600020905b815481529060010190602001808311611d9b57829003601f168201915b5050509183525050600582015460208201526006909101546001600160a01b0381166040830152600160a01b900460ff16151560609091015260e0810151909150611e1657604051639a6c6ff760e01b815260040160405180910390fd5b602001518214905092915050565b611e7a60405180610100016040528060008152602001600080191681526020016060815260200160608152602001606081526020016000815260200160006001600160a01b031681526020016000151581525090565b600060036000848152602001908152602001600020604051806101000160405290816000820154815260200160018201548152602001600282018054611ebf906141b7565b80601f0160208091040260200160405190810160405280929190818152602001828054611eeb906141b7565b8015611f385780601f10611f0d57610100808354040283529160200191611f38565b820191906000526020600020905b815481529060010190602001808311611f1b57829003601f168201915b50505050508152602001600382018054611f51906141b7565b80601f0160208091040260200160405190810160405280929190818152602001828054611f7d906141b7565b8015611fca5780601f10611f9f57610100808354040283529160200191611fca565b820191906000526020600020905b815481529060010190602001808311611fad57829003601f168201915b50505050508152602001600482018054611fe3906141b7565b80601f016020809104026020016040519081016040528092919081815260200182805461200f906141b7565b801561205c5780601f106120315761010080835404028352916020019161205c565b820191906000526020600020905b81548152906001019060200180831161203f57829003601f168201915b5050509183525050600582015460208201526006909101546001600160a01b0381166040830152600160a01b900460ff16151560609091015260e081015190915061088a57604051639a6c6ff760e01b815260040160405180910390fd5b6060600060036000848152602001908152602001600020604051806101000160405290816000820154815260200160018201548152602001600282018054612101906141b7565b80601f016020809104026020016040519081016040528092919081815260200182805461212d906141b7565b801561217a5780601f1061214f5761010080835404028352916020019161217a565b820191906000526020600020905b81548152906001019060200180831161215d57829003601f168201915b50505050508152602001600382018054612193906141b7565b80601f01602080910402602001604051908101604052809291908181526020018280546121bf906141b7565b801561220c5780601f106121e15761010080835404028352916020019161220c565b820191906000526020600020905b8154815290600101906020018083116121ef57829003601f168201915b50505050508152602001600482018054612225906141b7565b80601f0160208091040260200160405190810160405280929190818152602001828054612251906141b7565b801561229e5780601f106122735761010080835404028352916020019161229e565b820191906000526020600020905b81548152906001019060200180831161228157829003601f168201915b5050509183525050600582015460208201526006909101546001600160a01b0381166040830152600160a01b900460ff16151560609091015260e08101519091506122fc57604051639a6c6ff760e01b815260040160405180910390fd5b600083815260056020908152604080832080548251818502810185019093528083529193909284015b828210156125c95760008481526020908190206040805160e081019091526007850290910180546001600160a01b03168252600181018054929391929184019161236e906141b7565b80601f016020809104026020016040519081016040528092919081815260200182805461239a906141b7565b80156123e75780601f106123bc576101008083540402835291602001916123e7565b820191906000526020600020905b8154815290600101906020018083116123ca57829003601f168201915b50505050508152602001600282018054612400906141b7565b80601f016020809104026020016040519081016040528092919081815260200182805461242c906141b7565b80156124795780601f1061244e57610100808354040283529160200191612479565b820191906000526020600020905b81548152906001019060200180831161245c57829003601f168201915b50505050508152602001600382018054612492906141b7565b80601f01602080910402602001604051908101604052809291908181526020018280546124be906141b7565b801561250b5780601f106124e05761010080835404028352916020019161250b565b820191906000526020600020905b8154815290600101906020018083116124ee57829003601f168201915b50505050508152602001600482018054612524906141b7565b80601f0160208091040260200160405190810160405280929190818152602001828054612550906141b7565b801561259d5780601f106125725761010080835404028352916020019161259d565b820191906000526020600020905b81548152906001019060200180831161258057829003601f168201915b505050505081526020016005820154815260200160068201548152505081526020019060010190612325565b50505050915050919050565b60008781036125f757604051631208b21b60e01b815260040160405180910390fd5b600086900361261957604051631208b21b60e01b815260040160405180910390fd5b600084900361263b57604051631208b21b60e01b815260040160405180910390fd5b600082900361265d57604051631208b21b60e01b815260040160405180910390fd5b60006126683361369c565b9050612677816000015161398a565b61269457604051630aedfc3560e21b815260040160405180910390fd5b6005815160058111156126a9576126a9613ca0565b141580156126f857506126f6816020015185858080601f01602080910402602001604051908101604052809392919081815260200183838082843760009201919091525061386e92505050565b155b1561271657604051633562206d60e21b815260040160405180910390fd5b600160008082825461272891906144d9565b9250508190555060005491506040518061010001604052808381526020018c81526020018b8b8080601f016020809104026020016040519081016040528093929190818152602001838380828437600092019190915250505090825250604080516020601f8c018190048102820181019092528a815291810191908b908b9081908401838280828437600092019190915250505090825250604080516020601f8a01819004810282018101909252888152918101919089908990819084018382808284376000920182905250938552505042602080850191909152336040808601919091526001606090950185905287845260038252928390208551815590850151938101939093555082015160028201906128449082614242565b50606082015160038201906128599082614242565b506080820151600482019061286e9082614242565b5060a0820151600582015560c08201516006918201805460e0948501511515600160a01b026001600160a81b03199091166001600160a01b039093169290921791909117905560008481526020828152604080832080546001600160a01b03191633908117909155600483528184208251968701835293865285830152805180820182529384526527b934b3b4b760d11b84830152848101939093528251601f880182900482028101820190935286835290929160608301918890889081908401838280828437600092019190915250505090825250604080518082018252601281527111559251115390d157d4d55093525515115160721b60208281019190915280840191909152815160608101835260248082529290930192919061475b90830139815242602091820152825460018082018555600094855293829020835160079092020180546001600160a01b03199081166001600160a01b0393841617825592840151948101805490931694909116939093179055604081015190919060028201906129fe9082614242565b5060608201516003820190612a139082614242565b5060808201516004820190612a289082614242565b5060a08201516005820190612a3d9082614242565b5060c082015181600601555050336001600160a01b03168b837fdb4b181500de31e12f8629458ada24a6d171235bb5f18fd0d8f4e74ac7b3780e8d8d8d8d8d8d42604051612a9197969594939291906144ec565b60405180910390a4336001600160a01b031660006001600160a01b0316837f064d401cf715026f02b25c612c3f6dfa004e147a4817763b39f55c491f3d9c80878742604051612ae29392919061453d565b60405180910390a4509998505050505050505050565b6060600060036000848152602001908152602001600020604051806101000160405290816000820154815260200160018201548152602001600282018054612b3f906141b7565b80601f0160208091040260200160405190810160405280929190818152602001828054612b6b906141b7565b8015612bb85780601f10612b8d57610100808354040283529160200191612bb8565b820191906000526020600020905b815481529060010190602001808311612b9b57829003601f168201915b50505050508152602001600382018054612bd1906141b7565b80601f0160208091040260200160405190810160405280929190818152602001828054612bfd906141b7565b8015612c4a5780601f10612c1f57610100808354040283529160200191612c4a565b820191906000526020600020905b815481529060010190602001808311612c2d57829003601f168201915b50505050508152602001600482018054612c63906141b7565b80601f0160208091040260200160405190810160405280929190818152602001828054612c8f906141b7565b8015612cdc5780601f10612cb157610100808354040283529160200191612cdc565b820191906000526020600020905b815481529060010190602001808311612cbf57829003601f168201915b5050509183525050600582015460208201526006909101546001600160a01b0381166040830152600160a01b900460ff16151560609091015260e0810151909150612d3a57604051639a6c6ff760e01b815260040160405180910390fd5b600083815260046020908152604080832080548251818502810185019093528083529193909284015b828210156125c95760008481526020908190206040805160e0810182526007860290920180546001600160a01b0390811684526001820154169383019390935260028301805492939291840191612db9906141b7565b80601f0160208091040260200160405190810160405280929190818152602001828054612de5906141b7565b8015612e325780601f10612e0757610100808354040283529160200191612e32565b820191906000526020600020905b815481529060010190602001808311612e1557829003601f168201915b50505050508152602001600382018054612e4b906141b7565b80601f0160208091040260200160405190810160405280929190818152602001828054612e77906141b7565b8015612ec45780601f10612e9957610100808354040283529160200191612ec4565b820191906000526020600020905b815481529060010190602001808311612ea757829003601f168201915b50505050508152602001600482018054612edd906141b7565b80601f0160208091040260200160405190810160405280929190818152602001828054612f09906141b7565b8015612f565780601f10612f2b57610100808354040283529160200191612f56565b820191906000526020600020905b815481529060010190602001808311612f3957829003601f168201915b50505050508152602001600582018054612f6f906141b7565b80601f0160208091040260200160405190810160405280929190818152602001828054612f9b906141b7565b8015612fe85780601f10612fbd57610100808354040283529160200191612fe8565b820191906000526020600020905b815481529060010190602001808311612fcb57829003601f168201915b5050505050815260200160068201548152505081526020019060010190612d63565b6001546001600160a01b0316331461303557604051637bfa4b9f60e01b815260040160405180910390fd5b6001600160a01b03811661305c57604051631208b21b60e01b815260040160405180910390fd5b600180546001600160a01b038381166001600160a01b0319831681179093556000928352600260208190526040909320928301549116919060ff1615806130b957506005815460ff1660058111156130b6576130b6613ca0565b14155b156132e1576040805160a0810190915280600581526020018260010180546130e0906141b7565b159050613179578260010180546130f6906141b7565b80601f0160208091040260200160405190810160405280929190818152602001828054613122906141b7565b801561316f5780601f106131445761010080835404028352916020019161316f565b820191906000526020600020905b81548152906001019060200180831161315257829003601f168201915b50505050506131b0565b6040518060400160405280601881526020017f4d696e6973747279206f6620486f6d65204166666169727300000000000000008152505b8152602001600115158152602001428152602001336001600160a01b031681525060026000856001600160a01b03166001600160a01b0316815260200190815260200160002060008201518160000160006101000a81548160ff0219169083600581111561322057613220613ca0565b0217905550602082015160018201906132399082614242565b50604082015160028201805460ff191691151591909117905560608201516003820155608090910151600490910180546001600160a01b0319166001600160a01b0390921691909117905560056001600160a01b0384166000818152600260205260409081902090517fb2f962b86861817a5a011d45ff83cedc046f7b897942aaf66ba866aaee79fc7f916132d89160019182019190339042906145ef565b60405180910390a35b826001600160a01b0316826001600160a01b03167fe94624ea88cbea7c699145685b8b2cfddb79407902f55e1ada8cae78c434277a4260405161332691815260200190565b60405180910390a3505050565b600060036000868152602001908152602001600020604051806101000160405290816000820154815260200160018201548152602001600282018054613378906141b7565b80601f01602080910402602001604051908101604052809291908181526020018280546133a4906141b7565b80156133f15780601f106133c6576101008083540402835291602001916133f1565b820191906000526020600020905b8154815290600101906020018083116133d457829003601f168201915b5050505050815260200160038201805461340a906141b7565b80601f0160208091040260200160405190810160405280929190818152602001828054613436906141b7565b80156134835780601f1061345857610100808354040283529160200191613483565b820191906000526020600020905b81548152906001019060200180831161346657829003601f168201915b5050505050815260200160048201805461349c906141b7565b80601f01602080910402602001604051908101604052809291908181526020018280546134c8906141b7565b80156135155780601f106134ea57610100808354040283529160200191613515565b820191906000526020600020905b8154815290600101906020018083116134f857829003601f168201915b5050509183525050600582015460208201526006909101546001600160a01b0381166040830152600160a01b900460ff16151560609091015260e081015190915061357357604051639a6c6ff760e01b815260040160405180910390fd5b600082900361359557604051631208b21b60e01b815260040160405180910390fd5b60008160c001516001600160a01b0316336001600160a01b031614806135d157506000868152600660205260409020546001600160a01b031633145b806135e657506001546001600160a01b031633145b90508061360657604051630aedfc3560e21b815260040160405180910390fd5b60008681526007602090815260408083206001600160a01b03891684529091529020613633848683614699565b5060008681526008602052604090819020805460ff19166001179055516001600160a01b0386169087907f0b4f153c0430aefbc7d15afa74f2b4cd37d061dbcdad299276832aaa2515e7519061368c9042815260200190565b60405180910390a3505050505050565b6136a4613993565b6001600160a01b03821660009081526002602052604090819020815160a081019092528054829060ff1660058111156136df576136df613ca0565b60058111156136f0576136f0613ca0565b8152602001600182018054613704906141b7565b80601f0160208091040260200160405190810160405280929190818152602001828054613730906141b7565b801561377d5780601f106137525761010080835404028352916020019161377d565b820191906000526020600020905b81548152906001019060200180831161376057829003601f168201915b5050509183525050600282015460ff161515602082015260038201546040808301919091526004909201546001600160a01b031660609091015281015190915015806137db57506000815160058111156137d9576137d9613ca0565b145b156137f85760405162f08f6760e71b815260040160405180910390fd5b919050565b6000600182600581111561381357613813613ca0565b14806138305750600282600581111561382e5761382e613ca0565b145b8061384d575060035b82600581111561384b5761384b613ca0565b145b8061088a5750600582600581111561386757613867613ca0565b1492915050565b8051602091820120825192909101919091201490565b6000600583600581111561389a5761389a613ca0565b14806138b7575060058260058111156138b5576138b5613ca0565b145b156138c45750600161088a565b60018360058111156138d8576138d8613ca0565b1480156138f6575060028260058111156138f4576138f4613ca0565b145b156139035750600161088a565b600283600581111561391757613917613ca0565b1480156139355750600382600581111561393357613933613ca0565b145b156139425750600161088a565b600383600581111561395657613956613ca0565b1480156139745750600282600581111561397257613972613ca0565b145b156139815750600161088a565b50600092915050565b60006001613839565b6040805160a081019091528060008152602001606081526020016000151581526020016000815260200160006001600160a01b031681525090565b80356001600160a01b03811681146137f857600080fd5b60008083601f8401126139f757600080fd5b50813567ffffffffffffffff811115613a0f57600080fd5b602083019150836020828501011115613a2757600080fd5b9250929050565b600080600080600060808688031215613a4657600080fd5b613a4f866139ce565b9450602086013560068110613a6357600080fd5b9350604086013567ffffffffffffffff811115613a7f57600080fd5b613a8b888289016139e5565b90945092505060608601358015158114613aa457600080fd5b809150509295509295909350565b60008060408385031215613ac557600080fd5b82359150613ad5602084016139ce565b90509250929050565b6000815180845260005b81811015613b0457602081850181015186830182015201613ae8565b506000602082860101526020601f19601f83011685010191505092915050565b602081526000613b376020830184613ade565b9392505050565b600060208284031215613b5057600080fd5b5035919050565b6020808252825182820181905260009190848201906040850190845b81811015613b985783516001600160a01b031683529284019291840191600101613b73565b50909695505050505050565b60008060008060008060008060008060c08b8d031215613bc357600080fd5b8a359950613bd360208c016139ce565b985060408b013567ffffffffffffffff80821115613bf057600080fd5b613bfc8e838f016139e5565b909a50985060608d0135915080821115613c1557600080fd5b613c218e838f016139e5565b909850965060808d0135915080821115613c3a57600080fd5b613c468e838f016139e5565b909650945060a08d0135915080821115613c5f57600080fd5b50613c6c8d828e016139e5565b915080935050809150509295989b9194979a5092959850565b600060208284031215613c9757600080fd5b613b37826139ce565b634e487b7160e01b600052602160045260246000fd5b602081526000825160068110613cdc57634e487b7160e01b600052602160045260246000fd5b80602084015250602083015160a06040840152613cfc60c0840182613ade565b90506040840151151560608401526060840151608084015260018060a01b0360808501511660a08401528091505092915050565b60008060008060008060006080888a031215613d4b57600080fd5b87359650602088013567ffffffffffffffff80821115613d6a57600080fd5b613d768b838c016139e5565b909850965060408a0135915080821115613d8f57600080fd5b613d9b8b838c016139e5565b909650945060608a0135915080821115613db457600080fd5b50613dc18a828b016139e5565b989b979a50959850939692959293505050565b60008060408385031215613de757600080fd5b50508035926020909101359150565b60208152815160208201526020820151604082015260006040830151610100806060850152613e29610120850183613ade565b91506060850151601f1980868503016080870152613e478483613ade565b935060808701519150808685030160a087015250613e658382613ade565b92505060a085015160c085015260c0850151613e8c60e08601826001600160a01b03169052565b5060e0850151801515858301525090949350505050565b600060208083018184528085518083526040925060408601915060408160051b87010184880160005b83811015613f7d57888303603f19018552815180516001600160a01b031684528781015160e089860181905290613f0582870182613ade565b9150508782015185820389870152613f1d8282613ade565b91505060608083015186830382880152613f378382613ade565b9250505060808083015186830382880152613f528382613ade565b60a0858101519089015260c09485015194909701939093525050509386019390860190600101613ecc565b509098975050505050505050565b600080600080600080600080600060a08a8c031215613fa957600080fd5b8935985060208a013567ffffffffffffffff80821115613fc857600080fd5b613fd48d838e016139e5565b909a50985060408c0135915080821115613fed57600080fd5b613ff98d838e016139e5565b909850965060608c013591508082111561401257600080fd5b61401e8d838e016139e5565b909650945060808c013591508082111561403757600080fd5b506140448c828d016139e5565b915080935050809150509295985092959850929598565b600060208083018184528085518083526040925060408601915060408160051b87010184880160005b83811015613f7d57888303603f19018552815180516001600160a01b031684528781015160e0906140bf8a8701826001600160a01b03169052565b508782015181898701526140d582870182613ade565b915050606080830151868303828801526140ef8382613ade565b925050506080808301518683038288015261410a8382613ade565b9250505060a080830151868303828801526141258382613ade565b60c0948501519790940196909652505094870194925090860190600101614084565b6000806000806060858703121561415d57600080fd5b8435935061416d602086016139ce565b9250604085013567ffffffffffffffff81111561418957600080fd5b614195878288016139e5565b95989497509550505050565b634e487b7160e01b600052604160045260246000fd5b600181811c908216806141cb57607f821691505b6020821081036141eb57634e487b7160e01b600052602260045260246000fd5b50919050565b601f82111561423d576000816000526020600020601f850160051c8101602086101561421a5750805b601f850160051c820191505b8181101561423957828155600101614226565b5050505b505050565b815167ffffffffffffffff81111561425c5761425c6141a1565b6142708161426a84546141b7565b846141f1565b602080601f8311600181146142a5576000841561428d5750858301515b600019600386901b1c1916600185901b178555614239565b600085815260208120601f198616915b828110156142d4578886015182559484019460019091019084016142b5565b50858210156142f25787850151600019600388901b60f8161c191681555b5050505050600190811b01905550565b81835281816020850137506000828201602090810191909152601f909101601f19169091010190565b60808152600061433f608083018789614302565b9415156020830152506001600160a01b0392909216604083015260609091015292915050565b634e487b7160e01b600052603260045260246000fd5b634e487b7160e01b600052601160045260246000fd5b6000600182016143a3576143a361437b565b5060010190565b60a0815260006143be60a083018b8d614302565b82810360208401526143d1818a8c614302565b905082810360408401526143e681888a614302565b905082810360608401526143fb818688614302565b9150508260808301529a9950505050505050505050565b8981526bffffffffffffffffffffffff198960601b1660208201528688603483013760008782016034810160008152878982375086810190506034810160008152858782375060349401938401929092525050605401979650505050505050565b60a08152600061448660a083018b613ade565b8281036020840152614499818a8c614302565b905082810360408401526144ae81888a614302565b905082810360608401526144c3818688614302565b9150508260808301529998505050505050505050565b8082018082111561088a5761088a61437b565b60808152600061450060808301898b614302565b828103602084015261451381888a614302565b90508281036040840152614528818688614302565b91505082606083015298975050505050505050565b60a08152600660a08201526527b934b3b4b760d11b60c082015260e06020820152600061456e60e083018587614302565b828103806040850152601282527111559251115390d157d4d55093525515115160721b602083015260408101606085015250602460408201527f496e697469616c20726567697374726174696f6e20696e746f20536174796156606082015263185d5b1d60e21b608082015260a08101915050826080830152949350505050565b608081526000808654614601816141b7565b80608086015260a0600180841660008114614623576001811461463f57614671565b60ff19851660a089015260a084151560051b8901019550614671565b8b60005260208060002060005b868110156146675781548b820187015290840190820161464c565b8a0160a001975050505b5050505095151560208401526001600160a01b03949094166040830152506060015292915050565b67ffffffffffffffff8311156146b1576146b16141a1565b6146c5836146bf83546141b7565b836141f1565b6000601f8411600181146146f957600085156146e15750838201355b600019600387901b1c1916600186901b178355614753565b600083815260209020601f19861690835b8281101561472a578685013582556020948501946001909201910161470a565b50868210156147475760001960f88860031b161c19848701351681555b505060018560011b0183555b505050505056fe496e697469616c20726567697374726174696f6e20696e746f2053617479615661756c74a2646970667358221220b2b314e1966195625c9daa9333d617b02dfaac825fce00c119b3878602eb86c364736f6c63430008180033",
  "linkReferences": {},
  "deployedLinkReferences": {}
}