{
  "_format": "hh-sol-artifact-1",
  "contractName": "SatyaVault",
  "sourceName": "contracts/SatyaVault.sol",
  "abi": [
    {
      "inputs": [],
      "stateMutability": "nonpayable",
      "type": "constructor"
    },
    {
      "inputs": [],
      "name": "AgencyMismatch",
      "type": "error"
    },
    {
      "inputs": [],
      "name": "EmptyValue",
      "type": "error"
    },
    {
      "inputs": [],
      "name": "EvidenceNotFound",
      "type": "error"
    },
    {
      "inputs": [],
      "name": "InactiveActor",
      "type": "error"
    },
    {
      "inputs": [],
      "name": "InvalidCustodyPath",
      "type": "error"
    },
    {
      "inputs": [],
      "name": "InvalidRole",
      "type": "error"
    },
    {
      "inputs": [],
      "name": "NotAdmin",
      "type": "error"
    },
    {
      "inputs": [],
      "name": "NotCurrentCustodian",
      "type": "error"
    },
    {
      "inputs": [],
      "name": "SelfTransferNotAllowed",
      "type": "error"
    },
    {
      "inputs": [],
      "name": "UnauthorizedRole",
      "type": "error"
    },
    {
      "anonymous": false,
      "inputs": [
        {
          "indexed": true,
          "internalType": "address",
          "name": "actor",
          "type": "address"
        },
        {
          "indexed": true,
          "internalType": "enum SatyaVault.Role",
          "name": "role",
          "type": "uint8"
        },
        {
          "indexed": false,
          "internalType": "string",
          "name": "agency",
          "type": "string"
        },
        {
          "indexed": false,
          "internalType": "bool",
          "name": "active",
          "type": "bool"
        },
        {
          "indexed": false,
          "internalType": "address",
          "name": "updatedBy",
          "type": "address"
        },
        {
          "indexed": false,
          "internalType": "uint256",
          "name": "timestamp",
          "type": "uint256"
        }
      ],
      "name": "ActorProfileUpdated",
      "type": "event"
    },
    {
      "anonymous": false,
      "inputs": [
        {
          "indexed": true,
          "internalType": "address",
          "name": "oldAdmin",
          "type": "address"
        },
        {
          "indexed": true,
          "internalType": "address",
          "name": "newAdmin",
          "type": "address"
        },
        {
          "indexed": false,
          "internalType": "uint256",
          "name": "timestamp",
          "type": "uint256"
        }
      ],
      "name": "AdminUpdated",
      "type": "event"
    },
    {
      "anonymous": false,
      "inputs": [
        {
          "indexed": true,
          "internalType": "uint256",
          "name": "evidenceId",
          "type": "uint256"
        },
        {
          "indexed": true,
          "internalType": "address",
          "name": "fromActor",
          "type": "address"
        },
        {
          "indexed": true,
          "internalType": "address",
          "name": "toActor",
          "type": "address"
        },
        {
          "indexed": false,
          "internalType": "string",
          "name": "fromOrg",
          "type": "string"
        },
        {
          "indexed": false,
          "internalType": "string",
          "name": "toOrg",
          "type": "string"
        },
        {
          "indexed": false,
          "internalType": "string",
          "name": "action",
          "type": "string"
        },
        {
          "indexed": false,
          "internalType": "string",
          "name": "notes",
          "type": "string"
        },
        {
          "indexed": false,
          "internalType": "uint256",
          "name": "timestamp",
          "type": "uint256"
        }
      ],
      "name": "CustodyTransferred",
      "type": "event"
    },
    {
      "anonymous": false,
      "inputs": [
        {
          "indexed": true,
          "internalType": "uint256",
          "name": "evidenceId",
          "type": "uint256"
        },
        {
          "indexed": true,
          "internalType": "bytes32",
          "name": "fileHash",
          "type": "bytes32"
        },
        {
          "indexed": true,
          "internalType": "address",
          "name": "createdBy",
          "type": "address"
        },
        {
          "indexed": false,
          "internalType": "string",
          "name": "ipfsUri",
          "type": "string"
        },
        {
          "indexed": false,
          "internalType": "string",
          "name": "caseId",
          "type": "string"
        },
        {
          "indexed": false,
          "internalType": "string",
          "name": "investigatorId",
          "type": "string"
        },
        {
          "indexed": false,
          "internalType": "uint256",
          "name": "timestamp",
          "type": "uint256"
        }
      ],
      "name": "EvidenceRegistered",
      "type": "event"
    },
    {
      "anonymous": false,
      "inputs": [
        {
          "indexed": true,
          "internalType": "uint256",
          "name": "evidenceId",
          "type": "uint256"
        },
        {
          "indexed": true,
          "internalType": "bytes32",
          "name": "actionRef",
          "type": "bytes32"
        },
        {
          "indexed": true,
          "internalType": "address",
          "name": "actor",
          "type": "address"
        },
        {
          "indexed": false,
          "internalType": "string",
          "name": "agency",
          "type": "string"
        },
        {
          "indexed": false,
          "internalType": "string",
          "name": "actionType",
          "type": "string"
        },
        {
          "indexed": false,
          "internalType": "string",
          "name": "actionNotes",
          "type": "string"
        },
        {
          "indexed": false,
          "internalType": "string",
          "name": "artifactUri",
          "type": "string"
        },
        {
          "indexed": false,
          "internalType": "uint256",
          "name": "timestamp",
          "type": "uint256"
        }
      ],
      "name": "InvestigationActionLogged",
      "type": "event"
    },
    {
      "inputs": [
        {
          "internalType": "uint256",
          "name": "",
          "type": "uint256"
        }
      ],
      "name": "currentCustodian",
      "outputs": [
        {
          "internalType": "address",
          "name": "",
          "type": "address"
        }
      ],
      "stateMutability": "view",
      "type": "function"
    },
    {
      "inputs": [],
      "name": "evidenceCount",
      "outputs": [
        {
          "internalType": "uint256",
          "name": "",
          "type": "uint256"
        }
      ],
      "stateMutability": "view",
      "type": "function"
    },
    {
      "inputs": [
        {
          "internalType": "address",
          "name": "actor",
          "type": "address"
        }
      ],
      "name": "getActorProfile",
      "outputs": [
        {
          "components": [
            {
              "internalType": "enum SatyaVault.Role",
              "name": "role",
              "type": "uint8"
            },
            {
              "internalType": "string",
              "name": "agency",
              "type": "string"
            },
            {
              "internalType": "bool",
              "name": "active",
              "type": "bool"
            },
            {
              "internalType": "uint256",
              "name": "updatedAt",
              "type": "uint256"
            },
            {
              "internalType": "address",
              "name": "updatedBy",
              "type": "address"
            }
          ],
          "internalType": "struct SatyaVault.ActorProfile",
          "name": "",
          "type": "tuple"
        }
      ],
      "stateMutability": "view",
      "type": "function"
    },
    {
      "inputs": [
        {
          "internalType": "uint256",
          "name": "evidenceId",
          "type": "uint256"
        }
      ],
      "name": "getCustodyHistory",
      "outputs": [
        {
          "components": [
            {
              "internalType": "address",
              "name": "fromActor",
              "type": "address"
            },
            {
              "internalType": "address",
              "name": "toActor",
              "type": "address"
            },
            {
              "internalType": "string",
              "name": "fromOrg",
              "type": "string"
            },
            {
              "internalType": "string",
              "name": "toOrg",
              "type": "string"
            },
            {
              "internalType": "string",
              "name": "action",
              "type": "string"
            },
            {
              "internalType": "string",
              "name": "notes",
              "type": "string"
            },
            {
              "internalType": "uint256",
              "name": "timestamp",
              "type": "uint256"
            }
          ],
          "internalType": "struct SatyaVault.CustodyEvent[]",
          "name": "",
          "type": "tuple[]"
        }
      ],
      "stateMutability": "view",
      "type": "function"
    },
    {
      "inputs": [
        {
          "internalType": "uint256",
          "name": "evidenceId",
          "type": "uint256"
        }
      ],
      "name": "getEvidence",
      "outputs": [
        {
          "components": [
            {
              "internalType": "uint256",
              "name": "evidenceId",
              "type": "uint256"
            },
            {
              "internalType": "bytes32",
              "name": "fileHash",
              "type": "bytes32"
            },
            {
              "internalType": "string",
              "name": "ipfsUri",
              "type": "string"
            },
            {
              "internalType": "string",
              "name": "caseId",
              "type": "string"
            },
            {
              "internalType": "string",
              "name": "investigatorId",
              "type": "string"
            },
            {
              "internalType": "uint256",
              "name": "createdAt",
              "type": "uint256"
            },
            {
              "internalType": "address",
              "name": "createdBy",
              "type": "address"
            },
            {
              "internalType": "bool",
              "name": "exists",
              "type": "bool"
            }
          ],
          "internalType": "struct SatyaVault.Evidence",
          "name": "",
          "type": "tuple"
        }
      ],
      "stateMutability": "view",
      "type": "function"
    },
    {
      "inputs": [
        {
          "internalType": "uint256",
          "name": "evidenceId",
          "type": "uint256"
        }
      ],
      "name": "getInvestigationActions",
      "outputs": [
        {
          "components": [
            {
              "internalType": "address",
              "name": "actor",
              "type": "address"
            },
            {
              "internalType": "string",
              "name": "agency",
              "type": "string"
            },
            {
              "internalType": "string",
              "name": "actionType",
              "type": "string"
            },
            {
              "internalType": "string",
              "name": "actionNotes",
              "type": "string"
            },
            {
              "internalType": "string",
              "name": "artifactUri",
              "type": "string"
            },
            {
              "internalType": "bytes32",
              "name": "actionRef",
              "type": "bytes32"
            },
            {
              "internalType": "uint256",
              "name": "timestamp",
              "type": "uint256"
            }
          ],
          "internalType": "struct SatyaVault.InvestigationAction[]",
          "name": "",
          "type": "tuple[]"
        }
      ],
      "stateMutability": "view",
      "type": "function"
    },
    {
      "inputs": [
        {
          "internalType": "uint256",
          "name": "evidenceId",
          "type": "uint256"
        },
        {
          "internalType": "string",
          "name": "actionType",
          "type": "string"
        },
        {
          "internalType": "string",
          "name": "actionNotes",
          "type": "string"
        },
        {
          "internalType": "string",
          "name": "artifactUri",
          "type": "string"
        }
      ],
      "name": "recordInvestigativeAction",
      "outputs": [
        {
          "internalType": "bytes32",
          "name": "actionRef",
          "type": "bytes32"
        }
      ],
      "stateMutability": "nonpayable",
      "type": "function"
    },
    {
      "inputs": [
        {
          "internalType": "bytes32",
          "name": "fileHash",
          "type": "bytes32"
        },
        {
          "internalType": "string",
          "name": "ipfsUri",
          "type": "string"
        },
        {
          "internalType": "string",
          "name": "caseId",
          "type": "string"
        },
        {
          "internalType": "string",
          "name": "investigatorId",
          "type": "string"
        },
        {
          "internalType": "string",
          "name": "initialOrg",
          "type": "string"
        }
      ],
      "name": "registerEvidence",
      "outputs": [
        {
          "internalType": "uint256",
          "name": "newEvidenceId",
          "type": "uint256"
        }
      ],
      "stateMutability": "nonpayable",
      "type": "function"
    },
    {
      "inputs": [
        {
          "internalType": "address",
          "name": "actor",
          "type": "address"
        },
        {
          "internalType": "enum SatyaVault.Role",
          "name": "role",
          "type": "uint8"
        },
        {
          "internalType": "string",
          "name": "agency",
          "type": "string"
        },
        {
          "internalType": "bool",
          "name": "active",
          "type": "bool"
        }
      ],
      "name": "setActorProfile",
      "outputs": [],
      "stateMutability": "nonpayable",
      "type": "function"
    },
    {
      "inputs": [
        {
          "internalType": "address",
          "name": "newAdmin",
          "type": "address"
        }
      ],
      "name": "setSystemAdmin",
      "outputs": [],
      "stateMutability": "nonpayable",
      "type": "function"
    },
    {
      "inputs": [],
      "name": "systemAdmin",
      "outputs": [
        {
          "internalType": "address",
          "name": "",
          "type": "address"
        }
      ],
      "stateMutability": "view",
      "type": "function"
    },
    {
      "inputs": [
        {
          "internalType": "uint256",
          "name": "evidenceId",
          "type": "uint256"
        },
        {
          "internalType": "address",
          "name": "toActor",
          "type": "address"
        },
        {
          "internalType": "string",
          "name": "fromOrg",
          "type": "string"
        },
        {
          "internalType": "string",
          "name": "toOrg",
          "type": "string"
        },
        {
          "internalType": "string",
          "name": "action",
          "type": "string"
        },
        {
          "internalType": "string",
          "name": "notes",
          "type": "string"
        }
      ],
      "name": "transferCustody",
      "outputs": [],
      "stateMutability": "nonpayable",
      "type": "function"
    },
    {
      "inputs": [
        {
          "internalType": "uint256",
          "name": "evidenceId",
          "type": "uint256"
        },
        {
          "internalType": "bytes32",
          "name": "localHash",
          "type": "bytes32"
        }
      ],
      "name": "verifyIntegrity",
      "outputs": [
        {
          "internalType": "bool",
          "name": "",
          "type": "bool"
        }
      ],
      "stateMutability": "view",
      "type": "function"
    }
  ],
  "bytecode": "0x60806040523480156200001157600080fd5b50600180546001600160a01b031916331790556040805160a081019091528060058152604080518082018252601881527f4d696e6973747279206f6620486f6d65204166666169727300000000000000006020828101919091528084019190915260018284018190524260608501523360809094018490526000938452600290915291208251815491929091839160ff1990911690836005811115620000bb57620000bb6200019f565b021790555060208201516001820190620000d690826200025c565b50604082015160028201805460ff191691151591909117905560608201516003820155608090910151600490910180546001600160a01b0319166001600160a01b0390921691909117905560056040805160808082526018908201527f4d696e6973747279206f6620486f6d652041666661697273000000000000000060a082015260016020820152339181018290524260608201527fb2f962b86861817a5a011d45ff83cedc046f7b897942aaf66ba866aaee79fc7f9060c00160405180910390a362000328565b634e487b7160e01b600052602160045260246000fd5b634e487b7160e01b600052604160045260246000fd5b600181811c90821680620001e057607f821691505b6020821081036200020157634e487b7160e01b600052602260045260246000fd5b50919050565b601f82111562000257576000816000526020600020601f850160051c81016020861015620002325750805b601f850160051c820191505b8181101562000253578281556001016200023e565b5050505b505050565b81516001600160401b03811115620002785762000278620001b5565b6200029081620002898454620001cb565b8462000207565b602080601f831160018114620002c85760008415620002af5750858301515b600019600386901b1c1916600185901b17855562000253565b600085815260208120601f198616915b82811015620002f957888601518255948401946001909101908401620002d8565b5085821015620003185787850151600019600388901b60f8161c191681555b5050505050600190811b01905550565b61389780620003386000396000f3fe608060405234801561001057600080fd5b50600436106100cf5760003560e01c8063a2ed5af01161008c578063ccacfc3c11610066578063ccacfc3c146101e6578063d55202ab14610206578063d75af31e14610219578063ea8f7c211461023957600080fd5b8063a2ed5af01461019a578063b9722965146101a3578063c956f143146101c657600080fd5b806308e955b6146100d45780632f487c60146100e95780633c7efc21146100fc57806358b9d20d1461012557806378e494d314610146578063a239e33d14610187575b600080fd5b6100e76100e2366004612cef565b61024c565b005b6100e76100f7366004612d73565b6104a5565b61010f61010a366004612e54565b610bd6565b60405161011c9190612ed2565b60405180910390f35b610138610133366004612f4c565b610cf3565b60405190815260200161011c565b61016f610154366004612ff0565b6006602052600090815260409020546001600160a01b031681565b6040516001600160a01b03909116815260200161011c565b60015461016f906001600160a01b031681565b61013860005481565b6101b66101b1366004613009565b6111fe565b604051901515815260200161011c565b6101d96101d4366004612ff0565b61144e565b60405161011c919061302b565b6101f96101f4366004612ff0565b6116e4565b60405161011c91906130d8565b6101386102143660046131c0565b611bff565b61022c610227366004612ff0565b612122565b60405161011c9190613290565b6100e7610247366004612e54565b612634565b6001546001600160a01b0316331461027757604051637bfa4b9f60e01b815260040160405180910390fd5b6001600160a01b03851661029e57604051631208b21b60e01b815260040160405180910390fd5b8080156102bc575060008460058111156102ba576102ba612e76565b145b156102da57604051636caa20b560e11b815260040160405180910390fd5b60008460058111156102ee576102ee612e76565b1415801561030e5750600584600581111561030b5761030b612e76565b14155b8015610318575081155b1561033657604051631208b21b60e01b815260040160405180910390fd5b6040518060a0016040528085600581111561035357610353612e76565b815260200184848080601f016020809104026020016040519081016040528093929190818152602001838380828437600092018290525093855250505083151560208084019190915242604080850191909152336060909401939093526001600160a01b0389168252600290522081518154829060ff191660018360058111156103df576103df612e76565b0217905550602082015160018201906103f8908261341d565b50604082015160028201805460ff191691151591909117905560608201516003820155608090910151600490910180546001600160a01b0319166001600160a01b0390921691909117905583600581111561045557610455612e76565b856001600160a01b03167fb2f962b86861817a5a011d45ff83cedc046f7b897942aaf66ba866aaee79fc7f8585853342604051610496959493929190613506565b60405180910390a35050505050565b6000600360008c81526020019081526020016000206040518061010001604052908160008201548152602001600182015481526020016002820180546104ea90613392565b80601f016020809104026020016040519081016040528092919081815260200182805461051690613392565b80156105635780601f1061053857610100808354040283529160200191610563565b820191906000526020600020905b81548152906001019060200180831161054657829003601f168201915b5050505050815260200160038201805461057c90613392565b80601f01602080910402602001604051908101604052809291908181526020018280546105a890613392565b80156105f55780601f106105ca576101008083540402835291602001916105f5565b820191906000526020600020905b8154815290600101906020018083116105d857829003601f168201915b5050505050815260200160048201805461060e90613392565b80601f016020809104026020016040519081016040528092919081815260200182805461063a90613392565b80156106875780601f1061065c57610100808354040283529160200191610687565b820191906000526020600020905b81548152906001019060200180831161066a57829003601f168201915b5050509183525050600582015460208201526006909101546001600160a01b0381166040830152600160a01b900460ff16151560609091015260e08101519091506106e557604051639a6c6ff760e01b815260040160405180910390fd5b60008b8152600660205260409020546001600160a01b0316331461071c5760405163304664e960e11b815260040160405180910390fd5b6001600160a01b038a1661074357604051631208b21b60e01b815260040160405180910390fd5b6001600160a01b038a16330361076c576040516352a7f8fb60e01b815260040160405180910390fd5b600088900361078e57604051631208b21b60e01b815260040160405180910390fd5b60008690036107b057604051631208b21b60e01b815260040160405180910390fd5b60008490036107d257604051631208b21b60e01b815260040160405180910390fd5b60006107dd3361295d565b905060006107ea8c61295d565b90506107f98260000151612abe565b158061080d5750805161080b90612abe565b155b1561082b57604051630aedfc3560e21b815260040160405180910390fd5b60058251600581111561084057610840612e76565b1415801561088f575061088d82602001518c8c8080601f016020809104026020016040519081016040528093929190818152602001838380828437600092019190915250612b2f92505050565b155b156108ad57604051633562206d60e21b815260040160405180910390fd5b6005815160058111156108c2576108c2612e76565b14158015610911575061090f81602001518a8a8080601f016020809104026020016040519081016040528093929190818152602001838380828437600092019190915250612b2f92505050565b155b1561092f57604051633562206d60e21b815260040160405180910390fd5b8151815161093d9190612b45565b61095a57604051630a0d420f60e01b815260040160405180910390fd5b600460008e81526020019081526020016000206040518060e00160405280336001600160a01b031681526020018e6001600160a01b031681526020018d8d8080601f016020809104026020016040519081016040528093929190818152602001838380828437600092019190915250505090825250604080516020601f8e018190048102820181019092528c815291810191908d908d9081908401838280828437600092019190915250505090825250604080516020601f8c018190048102820181019092528a815291810191908b908b9081908401838280828437600092019190915250505090825250604080516020601f8a018190048102820181019092528881529181019190899089908190840183828082843760009201829052509385525050426020938401525083546001808201865594825290829020835160079092020180546001600160a01b03199081166001600160a01b039384161782559284015194810180549093169490911693909317905560408101519091906002820190610ae7908261341d565b5060608201516003820190610afc908261341d565b5060808201516004820190610b11908261341d565b5060a08201516005820190610b26908261341d565b5060c0820151816006015550508b600660008f815260200190815260200160002060006101000a8154816001600160a01b0302191690836001600160a01b031602179055508b6001600160a01b0316336001600160a01b03168e7f064d401cf715026f02b25c612c3f6dfa004e147a4817763b39f55c491f3d9c808e8e8e8e8e8e8e8e42604051610bbf99989796959493929190613540565b60405180910390a450505050505050505050505050565b610bde612c54565b6001600160a01b03821660009081526002602052604090819020815160a081019092528054829060ff166005811115610c1957610c19612e76565b6005811115610c2a57610c2a612e76565b8152602001600182018054610c3e90613392565b80601f0160208091040260200160405190810160405280929190818152602001828054610c6a90613392565b8015610cb75780601f10610c8c57610100808354040283529160200191610cb7565b820191906000526020600020905b815481529060010190602001808311610c9a57829003601f168201915b5050509183525050600282015460ff1615156020820152600382015460408201526004909101546001600160a01b031660609091015292915050565b600080600360008a8152602001908152602001600020604051806101000160405290816000820154815260200160018201548152602001600282018054610d3990613392565b80601f0160208091040260200160405190810160405280929190818152602001828054610d6590613392565b8015610db25780601f10610d8757610100808354040283529160200191610db2565b820191906000526020600020905b815481529060010190602001808311610d9557829003601f168201915b50505050508152602001600382018054610dcb90613392565b80601f0160208091040260200160405190810160405280929190818152602001828054610df790613392565b8015610e445780601f10610e1957610100808354040283529160200191610e44565b820191906000526020600020905b815481529060010190602001808311610e2757829003601f168201915b50505050508152602001600482018054610e5d90613392565b80601f0160208091040260200160405190810160405280929190818152602001828054610e8990613392565b8015610ed65780601f10610eab57610100808354040283529160200191610ed6565b820191906000526020600020905b815481529060010190602001808311610eb957829003601f168201915b5050509183525050600582015460208201526006909101546001600160a01b0381166040830152600160a01b900460ff16151560609091015260e0810151909150610f3457604051639a6c6ff760e01b815260040160405180910390fd5b6000879003610f5657604051631208b21b60e01b815260040160405180910390fd5b6000610f613361295d565b9050610f708160000151612abe565b610f8d57604051630aedfc3560e21b815260040160405180910390fd5b60008a8152600660205260409020546001600160a01b03163314801590610fc75750600581516005811115610fc457610fc4612e76565b14155b15610fe55760405163304664e960e11b815260040160405180910390fd5b89338a8a8a8a8a8a42604051602001611006999897969594939291906135a8565b60408051601f19818403018152828252805160209182012060008e81526005835283902060e08501845233855285830151858401528351601f8e0184900484028101840185528d815291975093928301918d908d9081908401838280828437600092019190915250505090825250604080516020601f8c018190048102820181019092528a815291810191908b908b9081908401838280828437600092019190915250505090825250604080516020601f8a0181900481028201810190925288815291810191908990899081908401838280828437600092018290525093855250505060208083018890524260409093019290925283546001808201865594825290829020835160079092020180546001600160a01b0319166001600160a01b03909216919091178155908201519192909190820190611146908261341d565b506040820151600282019061115b908261341d565b5060608201516003820190611170908261341d565b5060808201516004820190611185908261341d565b5060a0820151816005015560c082015181600601555050336001600160a01b0316838b7f1252334df803000be4698192f75785077e733b6c3f572ece9d6a2001972cf41684602001518d8d8d8d8d8d426040516111e9989796959493929190613609565b60405180910390a45050979650505050505050565b6000806003600085815260200190815260200160002060405180610100016040529081600082015481526020016001820154815260200160028201805461124490613392565b80601f016020809104026020016040519081016040528092919081815260200182805461127090613392565b80156112bd5780601f10611292576101008083540402835291602001916112bd565b820191906000526020600020905b8154815290600101906020018083116112a057829003601f168201915b505050505081526020016003820180546112d690613392565b80601f016020809104026020016040519081016040528092919081815260200182805461130290613392565b801561134f5780601f106113245761010080835404028352916020019161134f565b820191906000526020600020905b81548152906001019060200180831161133257829003601f168201915b5050505050815260200160048201805461136890613392565b80601f016020809104026020016040519081016040528092919081815260200182805461139490613392565b80156113e15780601f106113b6576101008083540402835291602001916113e1565b820191906000526020600020905b8154815290600101906020018083116113c457829003601f168201915b5050509183525050600582015460208201526006909101546001600160a01b0381166040830152600160a01b900460ff16151560609091015260e081015190915061143f57604051639a6c6ff760e01b815260040160405180910390fd5b60200151821490505b92915050565b6114a460405180610100016040528060008152602001600080191681526020016060815260200160608152602001606081526020016000815260200160006001600160a01b031681526020016000151581525090565b6000600360008481526020019081526020016000206040518061010001604052908160008201548152602001600182015481526020016002820180546114e990613392565b80601f016020809104026020016040519081016040528092919081815260200182805461151590613392565b80156115625780601f1061153757610100808354040283529160200191611562565b820191906000526020600020905b81548152906001019060200180831161154557829003601f168201915b5050505050815260200160038201805461157b90613392565b80601f01602080910402602001604051908101604052809291908181526020018280546115a790613392565b80156115f45780601f106115c9576101008083540402835291602001916115f4565b820191906000526020600020905b8154815290600101906020018083116115d757829003601f168201915b5050505050815260200160048201805461160d90613392565b80601f016020809104026020016040519081016040528092919081815260200182805461163990613392565b80156116865780601f1061165b57610100808354040283529160200191611686565b820191906000526020600020905b81548152906001019060200180831161166957829003601f168201915b5050509183525050600582015460208201526006909101546001600160a01b0381166040830152600160a01b900460ff16151560609091015260e081015190915061144857604051639a6c6ff760e01b815260040160405180910390fd5b606060006003600084815260200190815260200160002060405180610100016040529081600082015481526020016001820154815260200160028201805461172b90613392565b80601f016020809104026020016040519081016040528092919081815260200182805461175790613392565b80156117a45780601f10611779576101008083540402835291602001916117a4565b820191906000526020600020905b81548152906001019060200180831161178757829003601f168201915b505050505081526020016003820180546117bd90613392565b80601f01602080910402602001604051908101604052809291908181526020018280546117e990613392565b80156118365780601f1061180b57610100808354040283529160200191611836565b820191906000526020600020905b81548152906001019060200180831161181957829003601f168201915b5050505050815260200160048201805461184f90613392565b80601f016020809104026020016040519081016040528092919081815260200182805461187b90613392565b80156118c85780601f1061189d576101008083540402835291602001916118c8565b820191906000526020600020905b8154815290600101906020018083116118ab57829003601f168201915b5050509183525050600582015460208201526006909101546001600160a01b0381166040830152600160a01b900460ff16151560609091015260e081015190915061192657604051639a6c6ff760e01b815260040160405180910390fd5b600083815260056020908152604080832080548251818502810185019093528083529193909284015b82821015611bf35760008481526020908190206040805160e081019091526007850290910180546001600160a01b03168252600181018054929391929184019161199890613392565b80601f01602080910402602001604051908101604052809291908181526020018280546119c490613392565b8015611a115780601f106119e657610100808354040283529160200191611a11565b820191906000526020600020905b8154815290600101906020018083116119f457829003601f168201915b50505050508152602001600282018054611a2a90613392565b80601f0160208091040260200160405190810160405280929190818152602001828054611a5690613392565b8015611aa35780601f10611a7857610100808354040283529160200191611aa3565b820191906000526020600020905b815481529060010190602001808311611a8657829003601f168201915b50505050508152602001600382018054611abc90613392565b80601f0160208091040260200160405190810160405280929190818152602001828054611ae890613392565b8015611b355780601f10611b0a57610100808354040283529160200191611b35565b820191906000526020600020905b815481529060010190602001808311611b1857829003601f168201915b50505050508152602001600482018054611b4e90613392565b80601f0160208091040260200160405190810160405280929190818152602001828054611b7a90613392565b8015611bc75780601f10611b9c57610100808354040283529160200191611bc7565b820191906000526020600020905b815481529060010190602001808311611baa57829003601f168201915b50505050508152602001600582015481526020016006820154815250508152602001906001019061194f565b50505050915050919050565b6000878103611c2157604051631208b21b60e01b815260040160405180910390fd5b6000869003611c4357604051631208b21b60e01b815260040160405180910390fd5b6000849003611c6557604051631208b21b60e01b815260040160405180910390fd5b6000829003611c8757604051631208b21b60e01b815260040160405180910390fd5b6000611c923361295d565b9050611ca18160000151612c4b565b611cbe57604051630aedfc3560e21b815260040160405180910390fd5b600581516005811115611cd357611cd3612e76565b14158015611d225750611d20816020015185858080601f016020809104026020016040519081016040528093929190818152602001838380828437600092019190915250612b2f92505050565b155b15611d4057604051633562206d60e21b815260040160405180910390fd5b6001600080828254611d52919061366f565b9250508190555060005491506040518061010001604052808381526020018c81526020018b8b8080601f016020809104026020016040519081016040528093929190818152602001838380828437600092019190915250505090825250604080516020601f8c018190048102820181019092528a815291810191908b908b9081908401838280828437600092019190915250505090825250604080516020601f8a0181900481028201810190925288815291810191908990899081908401838280828437600092018290525093855250504260208085019190915233604080860191909152600160609095018590528784526003825292839020855181559085015193810193909355508201516002820190611e6e908261341d565b5060608201516003820190611e83908261341d565b5060808201516004820190611e98908261341d565b5060a0820151600582015560c08201516006918201805460e0948501511515600160a01b026001600160a81b03199091166001600160a01b039093169290921791909117905560008481526020828152604080832080546001600160a01b03191633908117909155600483528184208251968701835293865285830152805180820182529384526527b934b3b4b760d11b84830152848101939093528251601f880182900482028101820190935286835290929160608301918890889081908401838280828437600092019190915250505090825250604080518082018252601281527111559251115390d157d4d55093525515115160721b60208281019190915280840191909152815160608101835260248082529290930192919061383e90830139815242602091820152825460018082018555600094855293829020835160079092020180546001600160a01b03199081166001600160a01b039384161782559284015194810180549093169490911693909317905560408101519091906002820190612028908261341d565b506060820151600382019061203d908261341d565b5060808201516004820190612052908261341d565b5060a08201516005820190612067908261341d565b5060c082015181600601555050336001600160a01b03168b837fdb4b181500de31e12f8629458ada24a6d171235bb5f18fd0d8f4e74ac7b3780e8d8d8d8d8d8d426040516120bb9796959493929190613690565b60405180910390a4336001600160a01b031660006001600160a01b0316837f064d401cf715026f02b25c612c3f6dfa004e147a4817763b39f55c491f3d9c8087874260405161210c939291906136e1565b60405180910390a4509998505050505050505050565b606060006003600084815260200190815260200160002060405180610100016040529081600082015481526020016001820154815260200160028201805461216990613392565b80601f016020809104026020016040519081016040528092919081815260200182805461219590613392565b80156121e25780601f106121b7576101008083540402835291602001916121e2565b820191906000526020600020905b8154815290600101906020018083116121c557829003601f168201915b505050505081526020016003820180546121fb90613392565b80601f016020809104026020016040519081016040528092919081815260200182805461222790613392565b80156122745780601f1061224957610100808354040283529160200191612274565b820191906000526020600020905b81548152906001019060200180831161225757829003601f168201915b5050505050815260200160048201805461228d90613392565b80601f01602080910402602001604051908101604052809291908181526020018280546122b990613392565b80156123065780601f106122db57610100808354040283529160200191612306565b820191906000526020600020905b8154815290600101906020018083116122e957829003601f168201915b5050509183525050600582015460208201526006909101546001600160a01b0381166040830152600160a01b900460ff16151560609091015260e081015190915061236457604051639a6c6ff760e01b815260040160405180910390fd5b600083815260046020908152604080832080548251818502810185019093528083529193909284015b82821015611bf35760008481526020908190206040805160e0810182526007860290920180546001600160a01b03908116845260018201541693830193909352600283018054929392918401916123e390613392565b80601f016020809104026020016040519081016040528092919081815260200182805461240f90613392565b801561245c5780601f106124315761010080835404028352916020019161245c565b820191906000526020600020905b81548152906001019060200180831161243f57829003601f168201915b5050505050815260200160038201805461247590613392565b80601f01602080910402602001604051908101604052809291908181526020018280546124a190613392565b80156124ee5780601f106124c3576101008083540402835291602001916124ee565b820191906000526020600020905b8154815290600101906020018083116124d157829003601f168201915b5050505050815260200160048201805461250790613392565b80601f016020809104026020016040519081016040528092919081815260200182805461253390613392565b80156125805780601f1061255557610100808354040283529160200191612580565b820191906000526020600020905b81548152906001019060200180831161256357829003601f168201915b5050505050815260200160058201805461259990613392565b80601f01602080910402602001604051908101604052809291908181526020018280546125c590613392565b80156126125780601f106125e757610100808354040283529160200191612612565b820191906000526020600020905b8154815290600101906020018083116125f557829003601f168201915b505050505081526020016006820154815250508152602001906001019061238d565b6001546001600160a01b0316331461265f57604051637bfa4b9f60e01b815260040160405180910390fd5b6001600160a01b03811661268657604051631208b21b60e01b815260040160405180910390fd5b600180546001600160a01b038381166001600160a01b0319831681179093556000928352600260208190526040909320928301549116919060ff1615806126e357506005815460ff1660058111156126e0576126e0612e76565b14155b1561290b576040805160a08101909152806005815260200182600101805461270a90613392565b1590506127a35782600101805461272090613392565b80601f016020809104026020016040519081016040528092919081815260200182805461274c90613392565b80156127995780601f1061276e57610100808354040283529160200191612799565b820191906000526020600020905b81548152906001019060200180831161277c57829003601f168201915b50505050506127da565b6040518060400160405280601881526020017f4d696e6973747279206f6620486f6d65204166666169727300000000000000008152505b8152602001600115158152602001428152602001336001600160a01b031681525060026000856001600160a01b03166001600160a01b0316815260200190815260200160002060008201518160000160006101000a81548160ff0219169083600581111561284a5761284a612e76565b021790555060208201516001820190612863908261341d565b50604082015160028201805460ff191691151591909117905560608201516003820155608090910151600490910180546001600160a01b0319166001600160a01b0390921691909117905560056001600160a01b0384166000818152600260205260409081902090517fb2f962b86861817a5a011d45ff83cedc046f7b897942aaf66ba866aaee79fc7f91612902916001918201919033904290613793565b60405180910390a35b826001600160a01b0316826001600160a01b03167fe94624ea88cbea7c699145685b8b2cfddb79407902f55e1ada8cae78c434277a4260405161295091815260200190565b60405180910390a3505050565b612965612c54565b6001600160a01b03821660009081526002602052604090819020815160a081019092528054829060ff1660058111156129a0576129a0612e76565b60058111156129b1576129b1612e76565b81526020016001820180546129c590613392565b80601f01602080910402602001604051908101604052809291908181526020018280546129f190613392565b8015612a3e5780601f10612a1357610100808354040283529160200191612a3e565b820191906000526020600020905b815481529060010190602001808311612a2157829003601f168201915b5050509183525050600282015460ff161515602082015260038201546040808301919091526004909201546001600160a01b03166060909101528101519091501580612a9c5750600081516005811115612a9a57612a9a612e76565b145b15612ab95760405162f08f6760e71b815260040160405180910390fd5b919050565b60006001826005811115612ad457612ad4612e76565b1480612af157506002826005811115612aef57612aef612e76565b145b80612b0e575060035b826005811115612b0c57612b0c612e76565b145b8061144857506005826005811115612b2857612b28612e76565b1492915050565b8051602091820120825192909101919091201490565b60006005836005811115612b5b57612b5b612e76565b1480612b7857506005826005811115612b7657612b76612e76565b145b15612b8557506001611448565b6001836005811115612b9957612b99612e76565b148015612bb757506002826005811115612bb557612bb5612e76565b145b15612bc457506001611448565b6002836005811115612bd857612bd8612e76565b148015612bf657506003826005811115612bf457612bf4612e76565b145b15612c0357506001611448565b6003836005811115612c1757612c17612e76565b148015612c3557506002826005811115612c3357612c33612e76565b145b15612c4257506001611448565b50600092915050565b60006001612afa565b6040805160a081019091528060008152602001606081526020016000151581526020016000815260200160006001600160a01b031681525090565b80356001600160a01b0381168114612ab957600080fd5b60008083601f840112612cb857600080fd5b50813567ffffffffffffffff811115612cd057600080fd5b602083019150836020828501011115612ce857600080fd5b9250929050565b600080600080600060808688031215612d0757600080fd5b612d1086612c8f565b9450602086013560068110612d2457600080fd5b9350604086013567ffffffffffffffff811115612d4057600080fd5b612d4c88828901612ca6565b90945092505060608601358015158114612d6557600080fd5b809150509295509295909350565b60008060008060008060008060008060c08b8d031215612d9257600080fd5b8a359950612da260208c01612c8f565b985060408b013567ffffffffffffffff80821115612dbf57600080fd5b612dcb8e838f01612ca6565b909a50985060608d0135915080821115612de457600080fd5b612df08e838f01612ca6565b909850965060808d0135915080821115612e0957600080fd5b612e158e838f01612ca6565b909650945060a08d0135915080821115612e2e57600080fd5b50612e3b8d828e01612ca6565b915080935050809150509295989b9194979a5092959850565b600060208284031215612e6657600080fd5b612e6f82612c8f565b9392505050565b634e487b7160e01b600052602160045260246000fd5b6000815180845260005b81811015612eb257602081850181015186830182015201612e96565b506000602082860101526020601f19601f83011685010191505092915050565b602081526000825160068110612ef857634e487b7160e01b600052602160045260246000fd5b80602084015250602083015160a06040840152612f1860c0840182612e8c565b90506040840151151560608401526060840151608084015260018060a01b0360808501511660a08401528091505092915050565b60008060008060008060006080888a031215612f6757600080fd5b87359650602088013567ffffffffffffffff80821115612f8657600080fd5b612f928b838c01612ca6565b909850965060408a0135915080821115612fab57600080fd5b612fb78b838c01612ca6565b909650945060608a0135915080821115612fd057600080fd5b50612fdd8a828b01612ca6565b989b979a50959850939692959293505050565b60006020828403121561300257600080fd5b5035919050565b6000806040838503121561301c57600080fd5b50508035926020909101359150565b6020815281516020820152602082015160408201526000604083015161010080606085015261305e610120850183612e8c565b91506060850151601f198086850301608087015261307c8483612e8c565b935060808701519150808685030160a08701525061309a8382612e8c565b92505060a085015160c085015260c08501516130c160e08601826001600160a01b03169052565b5060e0850151801515858301525090949350505050565b600060208083018184528085518083526040925060408601915060408160051b87010184880160005b838110156131b257888303603f19018552815180516001600160a01b031684528781015160e08986018190529061313a82870182612e8c565b91505087820151858203898701526131528282612e8c565b9150506060808301518683038288015261316c8382612e8c565b92505050608080830151868303828801526131878382612e8c565b60a0858101519089015260c09485015194909701939093525050509386019390860190600101613101565b509098975050505050505050565b600080600080600080600080600060a08a8c0312156131de57600080fd5b8935985060208a013567ffffffffffffffff808211156131fd57600080fd5b6132098d838e01612ca6565b909a50985060408c013591508082111561322257600080fd5b61322e8d838e01612ca6565b909850965060608c013591508082111561324757600080fd5b6132538d838e01612ca6565b909650945060808c013591508082111561326c57600080fd5b506132798c828d01612ca6565b915080935050809150509295985092959850929598565b600060208083018184528085518083526040925060408601915060408160051b87010184880160005b838110156131b257888303603f19018552815180516001600160a01b031684528781015160e0906132f48a8701826001600160a01b03169052565b5087820151818987015261330a82870182612e8c565b915050606080830151868303828801526133248382612e8c565b925050506080808301518683038288015261333f8382612e8c565b9250505060a0808301518683038288015261335a8382612e8c565b60c09485015197909401969096525050948701949250908601906001016132b9565b634e487b7160e01b600052604160045260246000fd5b600181811c908216806133a657607f821691505b6020821081036133c657634e487b7160e01b600052602260045260246000fd5b50919050565b601f821115613418576000816000526020600020601f850160051c810160208610156133f55750805b601f850160051c820191505b8181101561341457828155600101613401565b5050505b505050565b815167ffffffffffffffff8111156134375761343761337c565b61344b816134458454613392565b846133cc565b602080601f83116001811461348057600084156134685750858301515b600019600386901b1c1916600185901b178555613414565b600085815260208120601f198616915b828110156134af57888601518255948401946001909101908401613490565b50858210156134cd5787850151600019600388901b60f8161c191681555b5050505050600190811b01905550565b81835281816020850137506000828201602090810191909152601f909101601f19169091010190565b60808152600061351a6080830187896134dd565b9415156020830152506001600160a01b0392909216604083015260609091015292915050565b60a08152600061355460a083018b8d6134dd565b8281036020840152613567818a8c6134dd565b9050828103604084015261357c81888a6134dd565b905082810360608401526135918186886134dd565b9150508260808301529a9950505050505050505050565b8981526bffffffffffffffffffffffff198960601b1660208201528688603483013760008782016034810160008152878982375086810190506034810160008152858782375060349401938401929092525050605401979650505050505050565b60a08152600061361c60a083018b612e8c565b828103602084015261362f818a8c6134dd565b9050828103604084015261364481888a6134dd565b905082810360608401526136598186886134dd565b9150508260808301529998505050505050505050565b8082018082111561144857634e487b7160e01b600052601160045260246000fd5b6080815260006136a460808301898b6134dd565b82810360208401526136b781888a6134dd565b905082810360408401526136cc8186886134dd565b91505082606083015298975050505050505050565b60a08152600660a08201526527b934b3b4b760d11b60c082015260e06020820152600061371260e0830185876134dd565b828103806040850152601282527111559251115390d157d4d55093525515115160721b602083015260408101606085015250602460408201527f496e697469616c20726567697374726174696f6e20696e746f20536174796156606082015263185d5b1d60e21b608082015260a08101915050826080830152949350505050565b6080815260008086546137a581613392565b80608086015260a06001808416600081146137c757600181146137e357613815565b60ff19851660a089015260a084151560051b8901019550613815565b8b60005260208060002060005b8681101561380b5781548b82018701529084019082016137f0565b8a0160a001975050505b5050505095151560208401526001600160a01b0394909416604083015250606001529291505056fe496e697469616c20726567697374726174696f6e20696e746f2053617479615661756c74a2646970667358221220aec760e6d7f13dec1c1ac01c43a5444ef3086e8be21d5ff9a1172ee9e3a0df3964736f6c63430008180033",
  "linkReferences": {},
  "deployedLinkReferences": {}
}